:0800000009C0FECFFDCFFCCFCB
:10000800FBCFFACFF9CFF8CFF7CFF6CFF894EE279A
:10001800ECBBE5BFF8E1A4B7A77FA4BFF1BDE1BD84
:100028008DE0A2E0ED938A95E9F780E4A0E6ED93F0
:100038008A95E9F7EFE9EDBFC0E716C0E881E0620D
:10004800E7B980E28A95F1F7369A349BFECF349A65
:10005800E5B121960895E2E0EA93F0DF4E2EE3E061
:10006800EA93ECDF5E2E0895E0E8E6BDE0E0E6BD49
:10007800E1E0E8BBE7BBE0E0EFBDE3BFE2BFE6BF1E
:10008800E9BDEBBFE5BFE9BFE0E8E8B9E0E0E3B907
:10009800E4BBE4B3E370E4BBE4B3E4BBE0E2E7B998
:1000A800E4E8E6B9D8DFEEE1E41548F4E2E34E16F9
:1000B80030F4EEE1E51518F4E2E35E1608F019C035
:1000C800E4E6F0E0FA93EA9317D0EEE1E41548F499
:1000D800E2E34E1630F4EEE1E51518F4E2E35E16BD
:1000E80008F006C0C098E8EBFBE0FA93EA9304D066
:1000F80001C0C09AD7CFFFCFE991F991309639F076
:1001080080E699E00197F1F7A8953197C9F7089526
:00000001FF
